:100000000C9434000C943E000C943E000C943E0082
:100010000C943E000C943E000C943E000C943E0068
:100020000C943E000C943E000C943E000C943E0058
:100030000C943E000C943E000C943E000C943E0048
:100040000C943E000C943E000C943E000C943E0038
:100050000C943E000C943E000C943E000C943E0028
:100060000C943E000C943E0011241FBECFEFD8E04C
:10007000DEBFCDBF0E9440000C945A000C940000DB
:100080008AB183608AB98AB18C7F8AB91BB8189902
:1000900004C08BB18E7F8BB903C08BB181608BB9EB
:1000A000199B04C08BB18D7F8BB9F1CF8BB182606E
:0800B0008BB9EDCFF894FFCFEE
:00000001FF
