S012000043414D504F5F424954532E7372656311
S11300000C9434000C9446000C9446000C94460066
S11300100C9446000C9446000C9446000C94460044
S11300200C9446000C9446000C9446000C94460034
S11300300C9446000C9446000C9446000C94460024
S11300400C9446000C9446000C9446000C94460014
S11300500C9446000C9446000C9446000C94460004
S11300600C9446000C94460011241FBECFEFD8E038
S1130070DEBFCDBF21E0A0E0B1E001C01D92A13000
S1130080B207E1F70E9448000C946D000C94000044
S113009084B1816084B98AB18E7F8AB98AB18D7F37
S11300A08AB98BB181608BB9189BFECF1899FECFAA
S11300B0809100018F5F80930001823010F01092D4
S11300C0000180910001813021F48BB182608BB9F1
S11100D0EBCF8BB18D7F8BB9E7CFF894FFCFC8
S9030000FC
