:100000000C9434000C9451000C9451000C94510049
:100010000C9451000C9451000C9451000C9451001C
:100020000C9451000C9451000C9451000C9451000C
:100030000C9451000C9451000C9451000C945100FC
:100040000C9451000C9451000C9451000C945100EC
:100050000C9451000C9451000C9451000C945100DC
:100060000C9451000C94510011241FBECFEFD8E026
:10007000DEBFCDBF11E0A0E0B1E0EAEEF0E002C0EB
:1000800005900D92AA30B107D9F721E0AAE0B1E0BE
:1000900001C01D92AB30B207E1F70E9453000C94EF
:1000A00073000C9400008FEF8AB984B18E7F84B9FD
:1000B000189B0BC01899FECF80910A018F5F809327
:1000C0000A018A3010F010920A01E0910A01F0E072
:1000D000E050FF4F80818BB98FE39CE90197F1F7E6
:0A00E00000C00000E5CFF894FFCF48
:0A00EA00C0F9A4B0999282F8809842
:00000001FF
