S02000005052494F52494441445F494E54455252555043494F4E45532E73726563CD
S11300000C9434000C9458000C947D000C943E0025
S11300100C943E000C94A2000C943E000C943E0000
S11300200C943E000C943E000C943E000C943E0054
S11300300C943E000C943E000C943E000C943E0044
S11300400C943E000C943E000C943E000C943E0034
S11300500C943E000C943E000C943E000C943E0024
S11300600C943E000C943E0011241FBECFEFD8E048
S1130070DEBFCDBF0E9440000C94B5000C9400007C
S113008084B1876084B915B8E9E6F0E080818F60B7
S113009080838DB383608DBBE8E6F0E0808184606B
S11300A08083EDE6F0E08081816080837894FFCFE7
S11300B01F920F920FB60F9211242F933F938F9399
S11300C09F93789490E0963078F425B181E082276C
S11300D085B92FEF33ED80E3215030408040E1F7C4
S11300E000C000009F5FEFCF9F918F913F912F91B0
S11300F00F900FBE0F901F9018951F920F920FB67E
S11301000F9211242F933F938F939F93789490E0B1
S1130110963078F425B182E0822785B92FEF33ED4C
S113012080E3215030408040E1F700C000009F5F31
S1130130EFCF9F918F913F912F910F900FBE0F9012
S11301401F9018951F920F920FB60F9211248F9340
S11301509F93789495B184E0892785B99F918F9175
S11101600F900FBE0F901F901895F894FFCFCC
S9030000FC
