S0140000444953504C41595F375345472E7372656385
S11300000C9434000C9451000C9451000C94510045
S11300100C9451000C9451000C9451000C94510018
S11300200C9451000C9451000C9451000C94510008
S11300300C9451000C9451000C9451000C945100F8
S11300400C9451000C9451000C9451000C945100E8
S11300500C9451000C9451000C9451000C945100D8
S11300600C9451000C94510011241FBECFEFD8E022
S1130070DEBFCDBF11E0A0E0B1E0ECE8F2E002C0E9
S113008005900D92AC30B107D9F721E0ACE0B1E0B6
S113009001C01D92A631B207E1F70E94A0000C94A2
S11300A044010C94000081E085B9E0910E01F091C7
S11300B00F01EE5FFE4F80818BB92FEF89EF90E047
S11300C0215080409040E1F700C0000082E085B9F3
S11300D0E0911001F0911101EE5FFE4F80818BB928
S11300E02FEF89EF90E0215080409040E1F700C06D
S11300F0000084E085B9E0910C01F0910D01EE5F00
S1130100FE4F80818BB92FEF89EF90E02150804022
S11301109040E1F700C0000088E085B9E091140147
S1130120F0911501EE5FFE4F80818BB92FEF89EFBF
S113013090E0215080409040E1F700C00000089515
S11301408FEF8AB984B18F6084B984B18F7C84B90C
S11301501C9B03C016C00E9453001C99FCCF8091C5
S11301600001909101010196909301018093000197
S11301708031974220F010920101109200010E94F8
S113018053001D9B03C00FC00E9453001D99FCCF58
S11301908091000190910101019790930101809356
S11301A000010E94530040910001509101019A0105
S11301B0369527953695279536952795A5ECB0E283
S11301C00E943501929582958F7089279F708927A7
S11301D090930F0180930E0168EE73E0869F900167
S11301E0879F300D969F300D1124421B530B9A01AB
S11301F03695279536952795ABE7B4E10E943501EE
S113020096958795909311018093100164E6689FF9
S11302109001699F300D1124421B530B509313011D
S1130220409312019A01ADECBCEC0E943501969505
S11302308795969587959695879590930D018093CC
S11302400C019C01220F331F880F991F880F991FDF
S1130250880F991F820F931F481B590B5093150148
S1130260409314010E94530073CFA29FB001B39F27
S1130270C001A39F700D811D1124911DB29F700DAB
S10F0280811D1124911D0895F894FFCFF6
S10F028C0521C0F9A4B0999282F8809872
S9030000FC
