S01700004763634170706C69636174696F6E312E737265635B
S11300000C9434000C9449000C9449000C9449005D
S11300100C9449000C9449000C9449000C94490038
S11300200C9449000C9449000C9449000C94490028
S11300300C9449000C9449000C9449000C94490018
S11300400C9449000C9449000C9449000C94490008
S11300500C9449000C9449000C9449000C944900F8
S11300600C9449000C94490011241FBECFEFD8E032
S1130070DEBFCDBF11E0A0E0B1E0ECE9F1E002C0E9
S113008005900D92A23AB107D9F70E947D000C9415
S1130090CC000C9400008AB182608AB98AB18E7F48
S11300A08AB91092C00088E98093C10086E08093E9
S11300B0C20087E690E09093C5008093C400089541
S11300C08091C00088231CF48091C600089580E0CC
S11300D008959091C00095FFFCCF8093C6000895C9
S11300E0CF93DF93EC0103C00E94690021968881BD
S11300F08111FACFDF91CF91089584B18C6184B9D5
S11301000E944B0080E091E00E94700081E291E047
S11301100E9470000E9460008823E1F38333E1F0C1
S113012028F4813349F0823379F0F4CF853321F117
S1130130D8F0863349F1EECF81E491E00E9470005B
S113014085B1846085B9E6CF82E591E00E947000B4
S113015085B18B7F85B9DECF81E691E00E94700086
S113016085B1886085B9D6CF82E791E00E9470009E
S113017085B1877F85B9CECF81E891E00E94700078
S113018085B1806185B9C6CF82E991E00E94700093
S10F019085B18F7E85B9BECFF894FFCFF7
S113019C446967697465203120332035207061729D
S11301AC6120656E63656E646572206C65640A0D0E
S11301BC00446967697465203220342036207061EC
S11301CC726120617061676172206C6564730A0DE1
S11301DC004C45443120656E63656E6469646F0A36
S11301EC0D004C454431206170616761646F0A0DE8
S11301FC004C45443220656E63656E6469646F0A15
S113020C0D004C454432206170616761646F0A0DC6
S113021C004C45443320656E63656E6469646F0AF3
S113022C0D004C454433206170616761646F0A0DA5
S105023C0000BC
S9030000FC
