:100000000C9434000C9451000C9451000C94510049
:100010000C9451000C9451000C9451000C9451001C
:100020000C9451000C9451000C9451000C9451000C
:100030000C9451000C9451000C9451000C945100FC
:100040000C9451000C9451000C9451000C945100EC
:100050000C9451000C9451000C9451000C945100DC
:100060000C9451000C94510011241FBECFEFD8E026
:10007000DEBFCDBF11E0A0E0B1E0EEE6F2E002C0ED
:1000800005900D92AC30B107D9F721E0ACE0B1E0BA
:1000900001C01D92A031B207E1F70E94C7000C9485
:1000A00035010C94000020910F0187E62802812D74
:1000B00011248595859527FD839580930D01880FE3
:1000C000982F990F990F890F922F981B90930C01DD
:1000D00090930E0181E085B9E0910E010E2E000C87
:1000E000FF0BEE5FFE4F80818BB98FE19EE401979D
:1000F000F1F700C0000082E085B9E0910D010E2EFD
:10010000000CFF0BEE5FFE4F80818BB98FE19EE408
:100110000197F1F700C000000895CF92DF92EF92AF
:10012000FF92CF936B017C01C0E08C2F90E0A0E0A8
:10013000B0E08C159D05AE05BF0530F40E9453005C
:100140001C9B02C0CF5FF1CFCF91FF90EF90DF906B
:10015000CF900895CF92DF92EF92FF92CF936B01F1
:100160007C01C0E08C2F90E0A0E0B0E08C159D05F4
:10017000AE05BF0530F40E9453001D9B02C0CF5F47
:10018000F1CFCF91FF90EF90DF90CF9008958FEF58
:100190008AB984B18F6084B984B18F7C84B91C9B87
:1001A0002FC01C9B21C06091000170910101072E9E
:1001B000000C880B990B0E948D008091000190919A
:1001C0000101059790930101809300010F9734F48A
:1001D0008FE090E0909301018093000180910F01E6
:1001E0008F5F80930F01DDCF82E390E09093010158
:1001F0008093000180910F01843614F010920F015A
:100200001D9B30C01D9B21C06091000170910101B8
:10021000072E000C880B990B0E94AA008091000108
:1002200090910101059790930101809300010F9730
:1002300034F48FE090E0909301018093000180916D
:100240000F01815080930F01DDCF82E390E0909306
:1002500001018093000180910F0188231CF483E643
:0E02600080930F010E9453009ACFF894FFCFB5
:0C026E003200C0F9A4B0999282F8809888
:00000001FF
