:100000000C9434000C9451000C9451000C94510049
:100010000C9451000C9451000C9451000C9451001C
:100020000C9451000C9451000C9451000C9451000C
:100030000C9451000C9451000C9451000C945100FC
:100040000C9451000C9451000C9451000C945100EC
:100050000C9451000C9451000C9451000C945100DC
:100060000C9451000C94510011241FBECFEFD8E026
:10007000DEBFCDBF11E0A0E0B1E0E0E6F9E002C0F4
:1000800005900D92A831B107D9F721E0A8E1B1E0C0
:1000900001C01D92A233B207E1F70E9431010C9416
:1000A000AE040C94000080FD04C09BB19F7E9BB900
:1000B00003C09BB190619BB981FD04C09BB19F7D42
:1000C0009BB903C09BB190629BB982FD04C09BB1F8
:1000D0009F7B9BB903C09BB190649BB983FD04C017
:1000E0008BB18F778BB903C08BB180688BB98BB123
:1000F000877F8BB98BB188608BB98BB1877F8BB9C8
:100100008FEA94E00197F1F700C000000895CF93C3
:10011000C82F662319F0613029F007C08BB18B7F9F
:100120008BB903C08BB184608BB98C2F82958F7093
:100130000E9453008C2F8F700E945300CF9108951E
:1001400061E00E948700089560E00E9487000895A2
:100150008AB18C6F8AB98BB183708BB98FE59AEEB7
:100160000197F1F700C0000083E00E9453008FE088
:1001700090E40197F1F700C0000083E00E94530073
:100180008FE891E00197F1F700C0000083E00E9442
:10019000530082E00E94530088E20E94A40095EC84
:1001A0009A95F1F7000087E080932D018FE00E947F
:1001B000A40085EC8A95F1F7000081E00E94A4007C
:1001C0008FE39FE10197F1F700C000000895CF93FE
:1001D000DF93EC0103C00E94A00021968881811169
:1001E000FACFDF91CF910895E82FF0E0E150FF4F73
:1001F0008081860F815080680E94A4000895CF936B
:10020000DF93CDB7DEB79E012B5F3F4FF9014191E0
:1002100051919F0165E170E088E191E00E94BA018F
:1002200088E191E00E94E700DF91CF9108958091ED
:100230002D018E7F80932D0188600E94A40085ECA3
:100240008A95F1F70000089580912D018D7F8093AC
:100250002D0188600E94A40085EC8A95F1F70000CA
:1002600008950E94A8000E9417010E942401ECE753
:10027000F0E080818F7D808380818F778083808193
:1002800080648083EAE7F0E08081807880838081E9
:1002900087608083EEE7F0E0808183608083ECE715
:1002A000F0E08081807F808380818083EAE7F0E0D6
:1002B0008081806C808380917A0086FDFCCFEAE7A4
:1002C000F0E080818F778083809178009091790031
:1002D0009093310180933001ACE7B0E08C91807F46
:1002E0008C938C9181608C938081806C80838091D1
:1002F0007A0086FDFCCFEAE7F0E080818F7780838B
:10030000809178009091790090932F0180932E0135
:1003100061E081E00E94F400809131018F9380912F
:1003200030018F9384E091E09F938F930E94FF00B0
:1003300061E082E00E94F40080912F018F93809110
:100340002E018F938EE091E09F938F930E94FF0088
:100350002FEF83EC99E0215080409040E1F700C0FE
:1003600000008DB79EB708960FB6F8949EBF0FBEDB
:100370008DBF95CFAEE0B0E0E0ECF1E00C948504E9
:100380008C01FA0186E08C831A83098377FF02C00F
:1003900060E070E8CB0101979E838D83A901BF01C6
:1003A000CE0101960E94E6014D815E8157FD0AC093
:1003B0002F813885421753070CF49A01F801E20F98
:1003C000F31F10822E96E4E00C94A104ABE0B0E0A1
:1003D000ECEEF1E00C9477046C017B018A01FC01E6
:1003E00017821682838181FFCCC1CE0101963C0128
:1003F000F6019381F70193FD859193FF81917F0130
:10040000882309F4BAC1853239F493FD859193FFAD
:1004100081917F01853229F4B60190E00E94DD03CD
:10042000E7CF912C212C312CFFE1F315D8F08B3242
:1004300079F038F4803279F08332A1F4232D2061F1
:100440001DC08D3261F0803369F4232D216016C008
:10045000832D8260382EE32DE4603E2E2AC0F32DDA
:10046000F8601DC037FC2DC020ED280F2A3040F069
:100470008E32B9F436FC81C1232D2064322E19C08E
:1004800036FE06C08AE0989E200D1124922E11C0DF
:10049000EAE02E9E200D1124222EF32DF0623F2E35
:1004A00008C08C3621F4832D8068382E02C088362F
:1004B00041F4F70193FD859193FF81917F018111B3
:1004C000B3CF982F9F7D9554933028F40C5F1F4F26
:1004D0009FE399830DC0833631F0833771F0833504
:1004E00009F059C021C0F801808189830E5F1F4F38
:1004F00088248394912C530113C02801F2E04F0EFD
:10050000511CF801A080B18036FE03C0692D70E057
:1005100002C06FEF7FEFC5010E94D2034C01820140
:10052000F32DFF773F2E16C0280122E0420E511C0A
:10053000F801A080B18036FE03C0692D70E002C0D2
:100540006FEF7FEFC5010E94C7034C01F32DF068E8
:100550003F2E820133FC1BC0822D90E08816990645
:10056000B0F4B60180E290E00E94DD032A94F4CF5B
:10057000F50137FC859137FE81915F01B60190E06E
:100580000E94DD0321102A9421E0821A910881142F
:10059000910471F7E8C0843611F0893641F5F8010D
:1005A00037FE07C060817181828193810C5F1F4F8C
:1005B00008C060817181072E000C880B990B0E5FBB
:1005C0001F4FF32DFF763F2E97FF09C09095809522
:1005D000709561957F4F8F4F9F4FF0683F2E2AE0B7
:1005E00030E0A3010E941904882E861845C0853783
:1005F00031F4232D2F7EB22E2AE030E025C0932D3A
:10060000997FB92E8F36C1F018F4883579F0B5C0CE
:10061000803719F0883721F0B0C0E92FE061BE2E95
:10062000B4FE0DC0FB2DF460BF2E09C034FE0AC01D
:10063000292F2660B22E06C028E030E005C020E158
:1006400030E002C020E132E0F801B7FE07C060816F
:100650007181828193810C5F1F4F06C0608171811F
:1006600080E090E00E5F1F4FA3010E941904882EC6
:100670008618FB2DFF773F2E36FE0DC0232D2E7FD3
:10068000A22E891458F434FE0BC032FC09C0832D0D
:100690008E7EA82E05C0B82CA32C03C0B82C01C098
:1006A000B92CA4FE0FC0FE01E80DF11D808180333E
:1006B00021F49A2D997EA92E09C0A2FE06C0B394FA
:1006C000B39404C08A2D867809F0B394A3FC11C0BA
:1006D000A0FE06C0B21488F4280C922C9B180EC001
:1006E000B21460F4B60180E290E00E94DD03B3949E
:1006F000F7CFB21418F42B1802C0982C212CA4FEAA
:1007000010C0B60180E390E00E94DD03A2FE17C096
:10071000A1FC03C088E790E002C088E590E0B60144
:100720000CC08A2D867859F0A1FE02C08BE201C070
:1007300080E2A7FC8DE2B60190E00E94DD038914FF
:1007400038F4B60180E390E00E94DD039A94F7CF7D
:100750008A94F301E80DF11D8081B60190E00E94BA
:10076000DD038110F5CF222009F442CEB60180E2EC
:1007700090E00E94DD032A94F6CFF60186819781EE
:1007800002C08FEF9FEF2B96E2E10C949304FC01E3
:100790000590615070400110D8F7809590958E0FAC
:1007A0009F1F0895FC016150704001900110D8F71F
:1007B000809590958E0F9F1F08950F931F93CF9351
:1007C000DF93FB01238121FD03C08FEF9FEF2CC03E
:1007D00022FF16C046815781248135814217530775
:1007E00044F4A081B1819D012F5F3F4F318320836D
:1007F0008C93268137812F5F3F4F3783268314C028
:100800008B01EC01FB010084F185E02D0995892B1A
:10081000E1F6D80116968D919C911797019617963F
:100820009C938E931697CE01DF91CF911F910F91DC
:100830000895FA01AA27283051F1203181F1E89476
:100840006F936E7F6E5F7F4F8F4F9F4FAF4FB1E0C3
:100850003ED0B4E03CD0670F781F891F9A1FA11DBE
:10086000680F791F8A1F911DA11D6A0F711D811DBF
:10087000911DA11D20D009F468943F912AE0269F84
:1008800011243019305D3193DEF6CF010895462FE3
:100890004770405D4193B3E00FD0C9F7F6CF462FC4
:1008A0004F70405D4A3318F0495D31FD405241932D
:1008B00002D0A9F7EACFB4E0A695979587957795EA
:1008C0006795BA95C9F700976105710508959B0171
:1008D000AC010A2E06945795479537952795BA95FA
:1008E000C9F7620F731F841F951FA01D08952F92D3
:1008F0003F924F925F926F927F928F929F92AF92B0
:10090000BF92CF92DF92EF92FF920F931F93CF93FC
:10091000DF93CDB7DEB7CA1BDB0B0FB6F894DEBF93
:100920000FBECDBF09942A88398848885F846E84B9
:100930007D848C849B84AA84B984C884DF80EE8003
:10094000FD800C811B81AA81B981CE0FD11D0FB60C
:10095000F894DEBF0FBECDBFED010895F894FFCF30
:1009600000401454414443303A202534640041444B
:0809700043313A2025346400F4
:00000001FF
