S01A0000494E54455252555043494F4E5F5043494E542E737265638B
S11300000C9434000C9446000C9446000C947C0030
S11300100C94A0000C9446000C9446000C944600EA
S11300200C9446000C9446000C9446000C94460034
S11300300C9446000C9446000C9446000C94460024
S11300400C9446000C9446000C9446000C94460014
S11300500C9446000C9446000C9446000C94460004
S11300600C9446000C94460011241FBECFEFD8E038
S1130070DEBFCDBF21E0A0E0B1E001C01D92A230FF
S1130080B207E1F70E9448000C94B9000C940000F8
S11300908AB18F608AB91BB884B18E7F84B9E8E6CF
S11300A0F0E0808183608083EBE6F0E08081816012
S11300B08083808182608083ECE6F0E080818160CF
S11300C0808378948091000190910101409724F0FD
S11300D010920101109200018091000190910101A0
S11300E0992334F48FE090E0909301018093000110
S11300F0809100018BB9E6CF1F920F920FB60F9239
S113010011248F939F93189909C0809100019091B5
S1130110010101969093010180930001199909C08E
S113012080910001909101010197909301018093C6
S113013000019F918F910F900FBE0F901F90189503
S11301401F920F920FB60F9211248F939F933099A1
S113015009C08091000190910101019790930101E0
S1130160809300019F918F910F900FBE0F901F906D
S10901701895F894FFCF7E
S9030000FC
