:100000000C9434000C9451000C9451000C94510049
:100010000C9451000C9451000C9451000C9451001C
:100020000C9451000C9451000C9451000C9451000C
:100030000C9451000C9451000C9451000C945100FC
:100040000C9451000C9451000C9451000C945100EC
:100050000C9451000C9451000C9451000C945100DC
:100060000C9451000C94510011241FBECFEFD8E026
:10007000DEBFCDBF11E0A0E0B1E0E6E7F1E002C0F5
:1000800005900D92AA30B107D9F721E0AAE0B1E0BE
:1000900001C01D92AF30B207E1F70E9476000C94C8
:1000A000B9000C94000081E085B9E0910B010E2E9F
:1000B000000CFF0BE050FF4F80818BB98FE19EE475
:1000C0000197F1F700C0000082E085B9E0910A01D4
:1000D0000E2E000CFF0BE050FF4F80818BB98FE19B
:1000E0009EE40197F1F700C0000008958FEF8AB9F0
:1000F00084B18F6084B984B18F7C84B91C9903C0AA
:100100000DC00E9453001C99FCCF80910C018F5FA1
:1001100080930C01843614F010920C011D9903C0D9
:100120000EC00E9453001D99FCCF80910C0181509C
:1001300080930C0188231CF483E680930C012091AA
:100140000C0187E62802812D11248595859527FDD0
:10015000839580930A01880F982F990F990F890F23
:10016000922F981B90930E0190930B010E945300C5
:06017000C5CFF894FFCF9B
:0A017600C0F9A4B0999282F88098B5
:00000001FF
