:100000000C9434000C9451000C9451000C94510049
:100010000C9451000C9451000C9451000C9451001C
:100020000C9451000C9451000C9451000C9451000C
:100030000C9451000C9451000C9451000C945100FC
:100040000C9451000C9451000C9451000C945100EC
:100050000C9451000C9451000C9451000C945100DC
:100060000C9451000C94510011241FBECFEFD8E026
:10007000DEBFCDBF11E0A0E0B1E0E4E7F1E002C0F7
:1000800005900D92AA30B107D9F721E0AAE0B1E0BE
:1000900001C01D92AC30B207E1F70E9476000C94CB
:1000A000B8000C94000019990BC0199BFECF8091E9
:1000B0000A018F5F80930A01823010F010920A01CA
:1000C0000895CF93DF93C0E0D0E009C00E945300B1
:1000D0008FE99FE00197F1F700C000002196C53F2E
:1000E00091E0D9079CF3DF91CF9108958FEF8AB902
:1000F00084B18E7F84B9E0910B01F0E0E050FF4FB6
:1001000080818BB980910A0181112BC0189B29C075
:100110001899FECF0E94530080910B018F5F80934E
:100120000B018A3010F010920B01E0910B01F0E00E
:10013000E050FF4F80818BB914C00E945300E091C2
:100140000B01EF5FE0930B01F0E0E050FF4F808187
:100150008BB90E94610080910B018A3010F01092DF
:100160000B0180910A01813041F30E945300CACFF4
:04017000F894FFCF31
:0A017400C0F9A4B0999282F88098B7
:00000001FF
