S00B00004C43442E7372656346
S11300000C9434000C9451000C9451000C94510045
S11300100C9451000C9451000C9451000C94510018
S11300200C9451000C9451000C9451000C94510008
S11300300C9451000C9451000C9451000C945100F8
S11300400C9451000C9451000C9451000C945100E8
S11300500C9451000C9451000C9451000C945100D8
S11300600C9451000C94510011241FBECFEFD8E022
S1130070DEBFCDBF11E0A0E0B1E0EEE2F2E002C0ED
S113008005900D92AE30B107D9F721E0AEE0B1E0B2
S113009001C01D92AF30B207E1F70E94F6000C9444
S11300A015010C94000080FD04C09BB19B7F9BB99B
S11300B003C09BB194609BB981FD04C09BB1977F41
S11300C09BB903C09BB198609BB982FD04C09BB1EE
S11300D09F7E9BB903C09BB190619BB983FD04C013
S11300E08BB18F7D8BB903C08BB180628BB98BB11F
S11300F08D7F8BB98BB182608BB98BB18D7F8BB9BE
S113010087E592E00197F1F700C000000895CF93CE
S1130110C82F662319F0613029F007C08BB18E7F98
S11301208BB903C08BB181608BB98C2F82958F7092
S11301300E9453008C2F8F700E945300CF9108951A
S113014061E00E948700089560E00E94870008959E
S11301508AB18F638AB98BB1807C8BB98FE295E7C2
S11301600197F1F700C0000083E00E94530087E08C
S113017090E20197F1F700C0000083E00E94530071
S113018087EC90E00197F1F700C0000083E00E9443
S1130190530082E00E94530088E20E94A4008EE093
S11301A00E94A4000895CF93DF93EC0103C00E9442
S11301B0A000219688818111FACFDF91CF91089513
S11301C080910E01982F926090930E018A600E9494
S11301D0A4008AE68A95F1F700C0089588E00E9499
S11301E0A4008AE68A95F1F700C008958FEF8AB9D2
S11301F00E94A80080E091E00E94D3002FEF83EDDD
S113020090E3215080409040E1F700C000000E943C
S1130210EE002FEF89E698E1215080409040E1F70D
S111022000C000000E94E000FFCFF894FFCF62
S111022E686F6C61206120746F646F73000050
S9030000FC
