:100000000C9434000C9451000C9451000C94510049
:100010000C9451000C9451000C9451000C9451001C
:100020000C9451000C9451000C9451000C9451000C
:100030000C9451000C9451000C9451000C945100FC
:100040000C9451000C9451000C9451000C945100EC
:100050000C9451000C9451000C9451000C945100DC
:100060000C9451000C94510011241FBECFEFD8E026
:10007000DEBFCDBF11E0A0E0B1E0EAEEF0E002C0EB
:1000800005900D92AA30B107D9F721E0AAE0B1E0BE
:1000900001C01D92AB30B207E1F70E9453000C94EF
:1000A00073000C9400008FEF8AB984B18E7F84B9FD
:1000B00010920A0113C0F0E0E050FF4F80818BB92D
:1000C0002FEF89E698E1215080409040E1F700C091
:1000D000000080910A018F5F80930A01E0910A017C
:0A00E000EA3048F3E5CFF894FFCFB3
:0A00EA00C0F9A4B0999282F8809842
:00000001FF
